{
  "contractName": "Election",
  "abi": [
    {
      "inputs": [],
      "payable": false,
      "stateMutability": "nonpayable",
      "type": "constructor"
    },
    {
      "constant": false,
      "inputs": [
        {
          "name": "_candidate",
          "type": "address"
        }
      ],
      "name": "vote",
      "outputs": [],
      "payable": false,
      "stateMutability": "nonpayable",
      "type": "function"
    },
    {
      "constant": false,
      "inputs": [
        {
          "name": "_newCandidate",
          "type": "address"
        },
        {
          "name": "_name",
          "type": "string"
        }
      ],
      "name": "addCandidate",
      "outputs": [],
      "payable": false,
      "stateMutability": "nonpayable",
      "type": "function"
    },
    {
      "constant": true,
      "inputs": [],
      "name": "getWinner",
      "outputs": [
        {
          "name": "",
          "type": "address"
        },
        {
          "name": "",
          "type": "string"
        },
        {
          "name": "",
          "type": "uint256"
        }
      ],
      "payable": false,
      "stateMutability": "view",
      "type": "function"
    },
    {
      "constant": false,
      "inputs": [],
      "name": "startElection",
      "outputs": [],
      "payable": false,
      "stateMutability": "nonpayable",
      "type": "function"
    },
    {
      "constant": true,
      "inputs": [
        {
          "name": "i",
          "type": "uint256"
        }
      ],
      "name": "getCandidateInfo",
      "outputs": [
        {
          "name": "",
          "type": "address"
        },
        {
          "name": "",
          "type": "string"
        },
        {
          "name": "",
          "type": "uint256"
        }
      ],
      "payable": false,
      "stateMutability": "view",
      "type": "function"
    },
    {
      "constant": true,
      "inputs": [],
      "name": "getLength",
      "outputs": [
        {
          "name": "",
          "type": "uint256"
        }
      ],
      "payable": false,
      "stateMutability": "view",
      "type": "function"
    }
  ],
  "bytecode": "0x6080604052600060035534801561001557600080fd5b5033600260006101000a81548173ffffffffffffffffffffffffffffffffffffffff021916908373ffffffffffffffffffffffffffffffffffffffff1602179055506000600260146101000a81548160ff021916908315150217905550610ea5806100816000396000f3fe608060405260043610610072576000357c01000000000000000000000000000000000000000000000000000000009004806362d73eb8146100775780636dd7d8ea1461008e57806370f67cfe146100df5780638e7ea5b2146101cd5780639a594f0614610297578063be1c766b1461037f575b600080fd5b34801561008357600080fd5b5061008c6103aa565b005b34801561009a57600080fd5b506100dd600480360360208110156100b157600080fd5b81019080803573ffffffffffffffffffffffffffffffffffffffff16906020019092919050505061054b565b005b3480156100eb57600080fd5b506101186004803603602081101561010257600080fd5b810190808035906020019092919050505061071c565b604051808473ffffffffffffffffffffffffffffffffffffffff1673ffffffffffffffffffffffffffffffffffffffff16815260200180602001838152602001828103825284818151815260200191508051906020019080838360005b83811015610190578082015181840152602081019050610175565b50505050905090810190601f1680156101bd5780820380516001836020036101000a031916815260200191505b5094505050505060405180910390f35b3480156101d957600080fd5b506101e26108e8565b604051808473ffffffffffffffffffffffffffffffffffffffff1673ffffffffffffffffffffffffffffffffffffffff16815260200180602001838152602001828103825284818151815260200191508051906020019080838360005b8381101561025a57808201518184015260208101905061023f565b50505050905090810190601f1680156102875780820380516001836020036101000a031916815260200191505b5094505050505060405180910390f35b3480156102a357600080fd5b5061037d600480360360408110156102ba57600080fd5b81019080803573ffffffffffffffffffffffffffffffffffffffff169060200190929190803590602001906401000000008111156102f757600080fd5b82018360208201111561030957600080fd5b8035906020019184600183028401116401000000008311171561032b57600080fd5b91908080601f016020809104026020016040519081016040528093929190818152602001838380828437600081840152601f19601f820116905080830192505050505050509192919290505050610b83565b005b34801561038b57600080fd5b50610394610dca565b6040518082815260200191505060405180910390f35b600260009054906101000a900473ffffffffffffffffffffffffffffffffffffffff1673ffffffffffffffffffffffffffffffffffffffff163373ffffffffffffffffffffffffffffffffffffffff1614151561046f576040517f08c379a00000000000000000000000000000000000000000000000000000000081526004018080602001828103825260158152602001807f596f7520617265206e6f7420746865206f776e6572000000000000000000000081525060200191505060405180910390fd5b60001515600260149054906101000a900460ff16151514801561049457506002600354115b151561052e576040517f08c379a00000000000000000000000000000000000000000000000000000000081526004018080602001828103825260278152602001807f616c72656164792073746172746564206f722063616e646964617465206e6f7481526020017f20656e6f6774680000000000000000000000000000000000000000000000000081525060400191505060405180910390fd5b6001600260146101000a81548160ff021916908315150217905550565b600015156000803373ffffffffffffffffffffffffffffffffffffffff1673ffffffffffffffffffffffffffffffffffffffff16815260200190815260200160002060020160009054906101000a900460ff1615151480156105c0575060011515600260149054906101000a900460ff161515145b1515610634576040517f08c379a000000000000000000000000000000000000000000000000000000000815260040180806020018281038252600a8152602001807f4e6f742076616c6964200000000000000000000000000000000000000000000081525060200191505060405180910390fd5b8073ffffffffffffffffffffffffffffffffffffffff163373ffffffffffffffffffffffffffffffffffffffff161415151561066f57600080fd5b60016000808373ffffffffffffffffffffffffffffffffffffffff1673ffffffffffffffffffffffffffffffffffffffff1681526020019081526020016000206001016000828254019250508190555060016000803373ffffffffffffffffffffffffffffffffffffffff1673ffffffffffffffffffffffffffffffffffffffff16815260200190815260200160002060020160006101000a81548160ff02191690831515021790555050565b6000606060006001600085815260200190815260200160002060009054906101000a900473ffffffffffffffffffffffffffffffffffffffff166000806001600088815260200190815260200160002060009054906101000a900473ffffffffffffffffffffffffffffffffffffffff1673ffffffffffffffffffffffffffffffffffffffff1673ffffffffffffffffffffffffffffffffffffffff1681526020019081526020016000206000016000806001600089815260200190815260200160002060009054906101000a900473ffffffffffffffffffffffffffffffffffffffff1673ffffffffffffffffffffffffffffffffffffffff1673ffffffffffffffffffffffffffffffffffffffff16815260200190815260200160002060010154818054600181600116156101000203166002900480601f0160208091040260200160405190810160405280929190818152602001828054600181600116156101000203166002900480156108d45780601f106108a9576101008083540402835291602001916108d4565b820191906000526020600020905b8154815290600101906020018083116108b757829003601f168201915b505050505091509250925092509193909250565b600060606000600260009054906101000a900473ffffffffffffffffffffffffffffffffffffffff1673ffffffffffffffffffffffffffffffffffffffff163373ffffffffffffffffffffffffffffffffffffffff161415156109b3576040517f08c379a00000000000000000000000000000000000000000000000000000000081526004018080602001828103825260158152602001807f596f7520617265206e6f7420746865206f776e6572000000000000000000000081525060200191505060405180910390fd5b60008090506000809050600080600090505b600354811015610a95576000806001600084815260200190815260200160002060009054906101000a900473ffffffffffffffffffffffffffffffffffffffff1673ffffffffffffffffffffffffffffffffffffffff1673ffffffffffffffffffffffffffffffffffffffff16815260200190815260200160002060010154925083831115610a88578293506001600082815260200190815260200160002060009054906101000a900473ffffffffffffffffffffffffffffffffffffffff1691505b80806001019150506109c5565b50806000808373ffffffffffffffffffffffffffffffffffffffff1673ffffffffffffffffffffffffffffffffffffffff16815260200190815260200160002060000184818054600181600116156101000203166002900480601f016020809104026020016040519081016040528092919081815260200182805460018160011615610100020316600290048015610b6e5780601f10610b4357610100808354040283529160200191610b6e565b820191906000526020600020905b815481529060010190602001808311610b5157829003601f168201915b50505050509150955095509550505050909192565b600260009054906101000a900473ffffffffffffffffffffffffffffffffffffffff1673ffffffffffffffffffffffffffffffffffffffff163373ffffffffffffffffffffffffffffffffffffffff16141515610c48576040517f08c379a00000000000000000000000000000000000000000000000000000000081526004018080602001828103825260158152602001807f596f7520617265206e6f7420746865206f776e6572000000000000000000000081525060200191505060405180910390fd5b60001515600260149054906101000a900460ff161515141515610c6a57600080fd5b8160016000600354815260200190815260200160002060006101000a81548173ffffffffffffffffffffffffffffffffffffffff021916908373ffffffffffffffffffffffffffffffffffffffff1602179055506001600360008282540192505081905550806000808473ffffffffffffffffffffffffffffffffffffffff1673ffffffffffffffffffffffffffffffffffffffff1681526020019081526020016000206000019080519060200190610d24929190610dd4565b5060008060008473ffffffffffffffffffffffffffffffffffffffff1673ffffffffffffffffffffffffffffffffffffffff1681526020019081526020016000206001018190555060008060008473ffffffffffffffffffffffffffffffffffffffff1673ffffffffffffffffffffffffffffffffffffffff16815260200190815260200160002060020160006101000a81548160ff0219169083151502179055505050565b6000600354905090565b828054600181600116156101000203166002900490600052602060002090601f016020900481019282601f10610e1557805160ff1916838001178555610e43565b82800160010185558215610e43579182015b82811115610e42578251825591602001919060010190610e27565b5b509050610e509190610e54565b5090565b610e7691905b80821115610e72576000816000905550600101610e5a565b5090565b9056fea165627a7a72305820541129de919affc9c4dc3a6c999af7d32f7e9e65ee0c4dab35abd7d9803a8cf40029",
  "source": "// SPDX-License-Identifier: MIT\r\npragma solidity >=0.4.0 < 0.8.0;\r\n\r\ncontract Election {\r\n    \r\n    struct candidate {\r\n        string name;\r\n        uint vote;\r\n        bool voted;\r\n    }\r\n    \r\n    mapping (address => candidate) candidateList;\r\n    mapping (uint => address) candidateAddress;\r\n    \r\n    address owner;\r\n    bool start;\r\n    uint candidateLength = 0;\r\n    \r\n    modifier validCandidate {\r\n        require(candidateList[msg.sender].voted == false && \r\n                start == true,\r\n                \"Not valid \");\r\n        _;\r\n    }\r\n    \r\n    modifier onlyOwner {\r\n        require(msg.sender == owner, \"You are not the owner\");\r\n        _;\r\n    }\r\n    \r\n    constructor() public{\r\n        owner = msg.sender;\r\n        start = false;\r\n    }\r\n    \r\n    function vote(address _candidate) public validCandidate {\r\n        // Not allow to vote for yourself\r\n        require (msg.sender != _candidate);\r\n        candidateList[_candidate].vote += 1;\r\n        candidateList[msg.sender].voted = true;\r\n    }\r\n    \r\n    function addCandidate(address _newCandidate, string memory _name) public onlyOwner{\r\n        require(start == false);\r\n        candidateAddress[candidateLength] = _newCandidate;\r\n        candidateLength += 1;\r\n        candidateList[_newCandidate].name = _name;\r\n        candidateList[_newCandidate].vote = 0;\r\n        candidateList[_newCandidate].voted = false;\r\n    }\r\n    \r\n    function getWinner() public view onlyOwner returns(address, string memory, uint){\r\n        uint voteMax = 0;\r\n        uint x = 0;\r\n        address winner;\r\n        for (uint i=0; i<candidateLength; i++){\r\n            x = candidateList[candidateAddress[i]].vote;\r\n            if (x > voteMax) {\r\n                voteMax = x;\r\n                winner = candidateAddress[i];\r\n            }\r\n        }\r\n        return (winner, candidateList[winner].name, voteMax);\r\n    }\r\n    \r\n    function startElection() public onlyOwner {\r\n        require (start == false&& candidateLength > 2,  \"already started or candidate not enogth\" );\r\n        start = true;\r\n    }\r\n\r\n    function getCandidateInfo(uint i) public view returns (address, string memory, uint) {\r\n        return (candidateAddress[i], candidateList[candidateAddress[i]].name, candidateList[candidateAddress[i]].vote);\r\n    }\r\n\r\n    function getLength() public view returns (uint) {\r\n        return candidateLength;\r\n    }\r\n}",
  "sourcePath": "C:/Users/georg/Desktop/Code/BlockChain/election/contracts/Election.sol",
  "compiler": {
    "name": "solc",
    "version": "0.5.1+commit.c8a2cb62.Emscripten.clang"
  },
  "schemaVersion": "3.3.2",
  "updatedAt": "2020-11-24T16:35:33.716Z",
  "networkType": "ethereum",
  "devdoc": {
    "methods": {}
  },
  "userdoc": {
    "methods": {}
  }
}