{
  "contractName": "Election",
  "abi": [
    {
      "inputs": [],
      "payable": false,
      "stateMutability": "nonpayable",
      "type": "constructor"
    },
    {
      "anonymous": false,
      "inputs": [
        {
          "indexed": false,
          "name": "",
          "type": "address"
        },
        {
          "indexed": false,
          "name": "",
          "type": "string"
        },
        {
          "indexed": false,
          "name": "",
          "type": "uint256"
        }
      ],
      "name": "Winner",
      "type": "event"
    },
    {
      "constant": false,
      "inputs": [
        {
          "name": "_candidate",
          "type": "address"
        }
      ],
      "name": "vote",
      "outputs": [],
      "payable": false,
      "stateMutability": "nonpayable",
      "type": "function"
    },
    {
      "constant": false,
      "inputs": [
        {
          "name": "_newCandidate",
          "type": "address"
        },
        {
          "name": "_name",
          "type": "string"
        }
      ],
      "name": "addCandidate",
      "outputs": [],
      "payable": false,
      "stateMutability": "nonpayable",
      "type": "function"
    },
    {
      "constant": false,
      "inputs": [],
      "name": "getWinner",
      "outputs": [],
      "payable": false,
      "stateMutability": "nonpayable",
      "type": "function"
    },
    {
      "constant": false,
      "inputs": [],
      "name": "startElection",
      "outputs": [],
      "payable": false,
      "stateMutability": "nonpayable",
      "type": "function"
    },
    {
      "constant": true,
      "inputs": [
        {
          "name": "i",
          "type": "uint256"
        }
      ],
      "name": "getCandidateInfo",
      "outputs": [
        {
          "name": "",
          "type": "address"
        },
        {
          "name": "",
          "type": "string"
        },
        {
          "name": "",
          "type": "uint256"
        }
      ],
      "payable": false,
      "stateMutability": "view",
      "type": "function"
    },
    {
      "constant": true,
      "inputs": [],
      "name": "getLength",
      "outputs": [
        {
          "name": "",
          "type": "uint256"
        }
      ],
      "payable": false,
      "stateMutability": "view",
      "type": "function"
    },
    {
      "constant": true,
      "inputs": [],
      "name": "getStart",
      "outputs": [
        {
          "name": "",
          "type": "bool"
        }
      ],
      "payable": false,
      "stateMutability": "view",
      "type": "function"
    },
    {
      "constant": true,
      "inputs": [],
      "name": "getClose",
      "outputs": [
        {
          "name": "",
          "type": "bool"
        }
      ],
      "payable": false,
      "stateMutability": "view",
      "type": "function"
    }
  ],
  "bytecode": "0x6080604052600060035534801561001557600080fd5b5033600260006101000a81548173ffffffffffffffffffffffffffffffffffffffff021916908373ffffffffffffffffffffffffffffffffffffffff1602179055506000600260146101000a81548160ff0219169083151502179055506000600260156101000a81548160ff0219169083151502179055506110758061009c6000396000f3fe608060405260043610610088576000357c01000000000000000000000000000000000000000000000000000000009004806362d73eb81461008d5780636dd7d8ea146100a457806370f67cfe146100f55780638e7ea5b2146101e35780639a594f06146101fa578063be1c766b146102e2578063c451436e1461030d578063c5292c671461033c575b600080fd5b34801561009957600080fd5b506100a261036b565b005b3480156100b057600080fd5b506100f3600480360360208110156100c757600080fd5b81019080803573ffffffffffffffffffffffffffffffffffffffff16906020019092919050505061050c565b005b34801561010157600080fd5b5061012e6004803603602081101561011857600080fd5b810190808035906020019092919050505061083d565b604051808473ffffffffffffffffffffffffffffffffffffffff1673ffffffffffffffffffffffffffffffffffffffff16815260200180602001838152602001828103825284818151815260200191508051906020019080838360005b838110156101a657808201518184015260208101905061018b565b50505050905090810190601f1680156101d35780820380516001836020036101000a031916815260200191505b5094505050505060405180910390f35b3480156101ef57600080fd5b506101f8610a09565b005b34801561020657600080fd5b506102e06004803603604081101561021d57600080fd5b81019080803573ffffffffffffffffffffffffffffffffffffffff1690602001909291908035906020019064010000000081111561025a57600080fd5b82018360208201111561026c57600080fd5b8035906020019184600183028401116401000000008311171561028e57600080fd5b91908080601f016020809104026020016040519081016040528093929190818152602001838380828437600081840152601f19601f820116905080830192505050505050509192919290505050610d06565b005b3480156102ee57600080fd5b506102f7610f6c565b6040518082815260200191505060405180910390f35b34801561031957600080fd5b50610322610f76565b604051808215151515815260200191505060405180910390f35b34801561034857600080fd5b50610351610f8d565b604051808215151515815260200191505060405180910390f35b600260009054906101000a900473ffffffffffffffffffffffffffffffffffffffff1673ffffffffffffffffffffffffffffffffffffffff163373ffffffffffffffffffffffffffffffffffffffff16141515610430576040517f08c379a00000000000000000000000000000000000000000000000000000000081526004018080602001828103825260158152602001807f596f7520617265206e6f7420746865206f776e6572000000000000000000000081525060200191505060405180910390fd5b60001515600260149054906101000a900460ff16151514801561045557506002600354115b15156104ef576040517f08c379a00000000000000000000000000000000000000000000000000000000081526004018080602001828103825260288152602001807f616c72656164792073746172746564206f722063616e646964617465206e6f7481526020017f20656e6f7567687400000000000000000000000000000000000000000000000081525060400191505060405180910390fd5b6001600260146101000a81548160ff021916908315150217905550565b600015156000803373ffffffffffffffffffffffffffffffffffffffff1673ffffffffffffffffffffffffffffffffffffffff16815260200190815260200160002060020160009054906101000a900460ff1615151415156105d6576040517f08c379a000000000000000000000000000000000000000000000000000000000815260040180806020018281038252600d8152602001807f616c726561647920766f7465640000000000000000000000000000000000000081525060200191505060405180910390fd5b60011515600260149054906101000a900460ff161515141515610661576040517f08c379a00000000000000000000000000000000000000000000000000000000081526004018080602001828103825260058152602001807f66616c736500000000000000000000000000000000000000000000000000000081525060200191505060405180910390fd5b60001515600260159054906101000a900460ff1615151415156106ec576040517f08c379a00000000000000000000000000000000000000000000000000000000081526004018080602001828103825260118152602001807f456c656374696f6e20697320636c6f736500000000000000000000000000000081525060200191505060405180910390fd5b8073ffffffffffffffffffffffffffffffffffffffff163373ffffffffffffffffffffffffffffffffffffffff1614151515610790576040517f08c379a000000000000000000000000000000000000000000000000000000000815260040180806020018281038252601d8152602001807f796f752063616e206e6f7420766f746520666f7220796f757273656c6600000081525060200191505060405180910390fd5b60016000808373ffffffffffffffffffffffffffffffffffffffff1673ffffffffffffffffffffffffffffffffffffffff1681526020019081526020016000206001016000828254019250508190555060016000803373ffffffffffffffffffffffffffffffffffffffff1673ffffffffffffffffffffffffffffffffffffffff16815260200190815260200160002060020160006101000a81548160ff02191690831515021790555050565b6000606060006001600085815260200190815260200160002060009054906101000a900473ffffffffffffffffffffffffffffffffffffffff166000806001600088815260200190815260200160002060009054906101000a900473ffffffffffffffffffffffffffffffffffffffff1673ffffffffffffffffffffffffffffffffffffffff1673ffffffffffffffffffffffffffffffffffffffff1681526020019081526020016000206000016000806001600089815260200190815260200160002060009054906101000a900473ffffffffffffffffffffffffffffffffffffffff1673ffffffffffffffffffffffffffffffffffffffff1673ffffffffffffffffffffffffffffffffffffffff16815260200190815260200160002060010154818054600181600116156101000203166002900480601f0160208091040260200160405190810160405280929190818152602001828054600181600116156101000203166002900480156109f55780601f106109ca576101008083540402835291602001916109f5565b820191906000526020600020905b8154815290600101906020018083116109d857829003601f168201915b505050505091509250925092509193909250565b600260009054906101000a900473ffffffffffffffffffffffffffffffffffffffff1673ffffffffffffffffffffffffffffffffffffffff163373ffffffffffffffffffffffffffffffffffffffff16141515610ace576040517f08c379a00000000000000000000000000000000000000000000000000000000081526004018080602001828103825260158152602001807f596f7520617265206e6f7420746865206f776e6572000000000000000000000081525060200191505060405180910390fd5b60008090506000809050600080600090505b600354811015610bb0576000806001600084815260200190815260200160002060009054906101000a900473ffffffffffffffffffffffffffffffffffffffff1673ffffffffffffffffffffffffffffffffffffffff1673ffffffffffffffffffffffffffffffffffffffff16815260200190815260200160002060010154925083831115610ba3578293506001600082815260200190815260200160002060009054906101000a900473ffffffffffffffffffffffffffffffffffffffff1691505b8080600101915050610ae0565b506001600260156101000a81548160ff0219169083151502179055507f953ec8b8176b9eb94e1561816a70bc231210aee5f1aaa59fdbad7915f9ad3c96816000808473ffffffffffffffffffffffffffffffffffffffff1673ffffffffffffffffffffffffffffffffffffffff16815260200190815260200160002060000185604051808473ffffffffffffffffffffffffffffffffffffffff1673ffffffffffffffffffffffffffffffffffffffff16815260200180602001838152602001828103825284818154600181600116156101000203166002900481526020019150805460018160011615610100020316600290048015610cf15780601f10610cc657610100808354040283529160200191610cf1565b820191906000526020600020905b815481529060010190602001808311610cd457829003601f168201915b505094505050505060405180910390a1505050565b600260009054906101000a900473ffffffffffffffffffffffffffffffffffffffff1673ffffffffffffffffffffffffffffffffffffffff163373ffffffffffffffffffffffffffffffffffffffff16141515610dcb576040517f08c379a00000000000000000000000000000000000000000000000000000000081526004018080602001828103825260158152602001807f596f7520617265206e6f7420746865206f776e6572000000000000000000000081525060200191505060405180910390fd5b60001515600260149054906101000a900460ff161515148015610e01575060001515600260159054906101000a900460ff161515145b1515610e0c57600080fd5b8160016000600354815260200190815260200160002060006101000a81548173ffffffffffffffffffffffffffffffffffffffff021916908373ffffffffffffffffffffffffffffffffffffffff1602179055506001600360008282540192505081905550806000808473ffffffffffffffffffffffffffffffffffffffff1673ffffffffffffffffffffffffffffffffffffffff1681526020019081526020016000206000019080519060200190610ec6929190610fa4565b5060008060008473ffffffffffffffffffffffffffffffffffffffff1673ffffffffffffffffffffffffffffffffffffffff1681526020019081526020016000206001018190555060008060008473ffffffffffffffffffffffffffffffffffffffff1673ffffffffffffffffffffffffffffffffffffffff16815260200190815260200160002060020160006101000a81548160ff0219169083151502179055505050565b6000600354905090565b6000600260159054906101000a900460ff16905090565b6000600260149054906101000a900460ff16905090565b828054600181600116156101000203166002900490600052602060002090601f016020900481019282601f10610fe557805160ff1916838001178555611013565b82800160010185558215611013579182015b82811115611012578251825591602001919060010190610ff7565b5b5090506110209190611024565b5090565b61104691905b8082111561104257600081600090555060010161102a565b5090565b9056fea165627a7a72305820bdf41db15d39d67e619095575c04e2fb25624ade1e2306dc13cb039539830ae90029",
  "source": "// SPDX-License-Identifier: MIT\r\npragma solidity >=0.4.0 < 0.8.0;\r\n\r\ncontract Election {\r\n    \r\n    struct candidate {\r\n        string name;\r\n        uint vote;\r\n        bool voted;\r\n    }\r\n    \r\n    mapping (address => candidate) candidateList;\r\n    mapping (uint => address) candidateAddress;\r\n    \r\n    address owner;\r\n    bool start;\r\n    bool close;\r\n    uint candidateLength = 0;\r\n\r\n    event Winner(address, string, uint);\r\n    \r\n    modifier validCandidate {\r\n        require(candidateList[msg.sender].voted == false, \"already voted\"); \r\n        require(start == true, \"false\");\r\n        _;\r\n    }\r\n    \r\n    modifier onlyOwner {\r\n        require(msg.sender == owner, \"You are not the owner\");\r\n        _;\r\n    }\r\n    \r\n    constructor() public{\r\n        owner = msg.sender;\r\n        start = false;\r\n        close = false;\r\n    }\r\n    \r\n    function vote(address _candidate) public validCandidate {\r\n        require(close == false, \"Election is close\");\r\n        // Not allow to vote for yourself\r\n        require (msg.sender != _candidate, \"you can not vote for yourself\");\r\n        candidateList[_candidate].vote += 1;\r\n        candidateList[msg.sender].voted = true;\r\n    }\r\n    \r\n    function addCandidate(address _newCandidate, string memory _name) public onlyOwner{\r\n        require(start == false && close == false);\r\n        candidateAddress[candidateLength] = _newCandidate;\r\n        candidateLength += 1;\r\n        candidateList[_newCandidate].name = _name;\r\n        candidateList[_newCandidate].vote = 0;\r\n        candidateList[_newCandidate].voted = false;\r\n    }\r\n    \r\n    function getWinner() public onlyOwner{\r\n        uint voteMax = 0;\r\n        uint x = 0;\r\n        address winner;\r\n        for (uint i=0; i<candidateLength; i++){\r\n            x = candidateList[candidateAddress[i]].vote;\r\n            if (x > voteMax) {\r\n                voteMax = x;\r\n                winner = candidateAddress[i];\r\n            }\r\n        }\r\n        close = true;\r\n        emit Winner(winner, candidateList[winner].name, voteMax);\r\n    }\r\n    \r\n    function startElection() public onlyOwner {\r\n        require (start == false && candidateLength > 2,  \"already started or candidate not enought\" );\r\n        start = true;\r\n    }\r\n\r\n    function getCandidateInfo(uint i) public view returns (address, string memory, uint) {\r\n        return (candidateAddress[i], candidateList[candidateAddress[i]].name, candidateList[candidateAddress[i]].vote);\r\n    }\r\n\r\n    function getLength() public view returns (uint) {\r\n        return candidateLength;\r\n    }\r\n\r\n    function getStart() public view returns (bool){\r\n        return start;\r\n    }\r\n\r\n    function getClose() public view returns(bool){\r\n        return close;\r\n    }\r\n}",
  "sourcePath": "C:/Users/georg/Desktop/Code/BlockChain/ElectionDapp/contracts/Election.sol",
  "compiler": {
    "name": "solc",
    "version": "0.5.1+commit.c8a2cb62.Emscripten.clang"
  },
  "schemaVersion": "3.3.2",
  "updatedAt": "2020-11-26T09:30:52.190Z",
  "networkType": "ethereum",
  "devdoc": {
    "methods": {}
  },
  "userdoc": {
    "methods": {}
  }
}